{
  "abi": [
    {
      "inputs": [
        {
          "internalType": "contract ISwapRouter",
          "name": "_swapRouter",
          "type": "address"
        }
      ],
      "stateMutability": "nonpayable",
      "type": "constructor"
    },
    {
      "inputs": [],
      "name": "DAI",
      "outputs": [
        {
          "internalType": "address",
          "name": "",
          "type": "address"
        }
      ],
      "stateMutability": "view",
      "type": "function"
    },
    {
      "inputs": [],
      "name": "USDC",
      "outputs": [
        {
          "internalType": "address",
          "name": "",
          "type": "address"
        }
      ],
      "stateMutability": "view",
      "type": "function"
    },
    {
      "inputs": [],
      "name": "WETH9",
      "outputs": [
        {
          "internalType": "address",
          "name": "",
          "type": "address"
        }
      ],
      "stateMutability": "view",
      "type": "function"
    },
    {
      "inputs": [],
      "name": "poolFee",
      "outputs": [
        {
          "internalType": "uint24",
          "name": "",
          "type": "uint24"
        }
      ],
      "stateMutability": "view",
      "type": "function"
    },
    {
      "inputs": [
        {
          "internalType": "uint256",
          "name": "amountIn",
          "type": "uint256"
        }
      ],
      "name": "safeTransferAndApprove",
      "outputs": [],
      "stateMutability": "nonpayable",
      "type": "function"
    },
    {
      "inputs": [
        {
          "internalType": "address",
          "name": "_tokenAdr",
          "type": "address"
        }
      ],
      "name": "setDAIAddr",
      "outputs": [],
      "stateMutability": "nonpayable",
      "type": "function"
    },
    {
      "inputs": [
        {
          "internalType": "address",
          "name": "_tokenAdr",
          "type": "address"
        }
      ],
      "name": "setWETHAddr",
      "outputs": [],
      "stateMutability": "nonpayable",
      "type": "function"
    },
    {
      "inputs": [
        {
          "internalType": "uint256",
          "name": "amountIn",
          "type": "uint256"
        }
      ],
      "name": "swapExactInputSingle",
      "outputs": [
        {
          "internalType": "uint256",
          "name": "amountOut",
          "type": "uint256"
        }
      ],
      "stateMutability": "nonpayable",
      "type": "function"
    },
    {
      "inputs": [],
      "name": "swapRouter",
      "outputs": [
        {
          "internalType": "contract ISwapRouter",
          "name": "",
          "type": "address"
        }
      ],
      "stateMutability": "view",
      "type": "function"
    }
  ],
  "bytecode": {
    "object": "0x60a0604052600080546001600160a01b031990811673c7ad46e0b8a400bb3c915120d284aafba8fc47351790915560018054821673c778417e063141139fce010982780140aa0cd5ab1790556002805490911673eb8f08a975ab53e34d8a0330e0d34de942c9592617905534801561007657600080fd5b506040516107ef3803806107ef833981016040819052610095916100aa565b60601b6001600160601b0319166080526100d8565b6000602082840312156100bb578081fd5b81516001600160a01b03811681146100d1578182fd5b9392505050565b60805160601c6106f06100ff6000398061020552806102cc52806102f652506106f06000f3fe608060405234801561001057600080fd5b50600436106100935760003560e01c806373bd43ad1161006657806373bd43ad146100f357806389a3027114610113578063a125d20f1461011b578063c31c9c071461012e578063e0bab4c41461013657610093565b8063089fe6aa14610098578063478c3d87146100b65780634aa4a4fc146100cb5780635d2f261f146100e0575b600080fd5b6100a061013e565b6040516100ad91906106a1565b60405180910390f35b6100c96100c43660046105cd565b610144565b005b6100d3610166565b6040516100ad9190610624565b6100c96100ee3660046105cd565b610175565b6101066101013660046105f4565b610197565b6040516100ad91906106b1565b6100d3610293565b6100c96101293660046105f4565b6102a2565b6100d36102f4565b6100d3610318565b610bb881565b600180546001600160a01b0319166001600160a01b0392909216919091179055565b6001546001600160a01b031681565b600080546001600160a01b0319166001600160a01b0392909216919091179055565b60006101a2826102a2565b6040805161010081018252600080546001600160a01b03908116835260015481166020840152610bb8838501523360608401526103e84201608084015260a0830186905260c0830182905260e0830191909152915163414bf38960e01b815290917f0000000000000000000000000000000000000000000000000000000000000000169063414bf3899061023a908490600401610638565b602060405180830381600087803b15801561025457600080fd5b505af1158015610268573d6000803e3d6000fd5b505050506040513d601f19601f8201168201806040525081019061028c919061060c565b9392505050565b6002546001600160a01b031681565b6000546102ba906001600160a01b0316333084610327565b6000546102f1906001600160a01b03167f00000000000000000000000000000000000000000000000000000000000000008361047f565b50565b7f000000000000000000000000000000000000000000000000000000000000000081565b6000546001600160a01b031681565b604080516001600160a01b0385811660248301528481166044830152606480830185905283518084039091018152608490920183526020820180516001600160e01b03166323b872dd60e01b178152925182516000948594938a169392918291908083835b602083106103ab5780518252601f19909201916020918201910161038c565b6001836020036101000a0380198251168184511680821785525050505050509050019150506000604051808303816000865af19150503d806000811461040d576040519150601f19603f3d011682016040523d82523d6000602084013e610412565b606091505b5091509150818015610440575080511580610440575080806020019051602081101561043d57600080fd5b50515b610477576040805162461bcd60e51b815260206004820152600360248201526229aa2360e91b604482015290519081900360640190fd5b505050505050565b604080516001600160a01b038481166024830152604480830185905283518084039091018152606490920183526020820180516001600160e01b031663095ea7b360e01b1781529251825160009485949389169392918291908083835b602083106104fb5780518252601f1990920191602091820191016104dc565b6001836020036101000a0380198251168184511680821785525050505050509050019150506000604051808303816000865af19150503d806000811461055d576040519150601f19603f3d011682016040523d82523d6000602084013e610562565b606091505b5091509150818015610590575080511580610590575080806020019051602081101561058d57600080fd5b50515b6105c6576040805162461bcd60e51b8152602060048201526002602482015261534160f01b604482015290519081900360640190fd5b5050505050565b6000602082840312156105de578081fd5b81356001600160a01b038116811461028c578182fd5b600060208284031215610605578081fd5b5035919050565b60006020828403121561061d578081fd5b5051919050565b6001600160a01b0391909116815260200190565b81516001600160a01b03908116825260208084015182169083015260408084015162ffffff16908301526060808401518216908301526080808401519083015260a0838101519083015260c0808401519083015260e09283015116918101919091526101000190565b62ffffff91909116815260200190565b9081526020019056fea2646970667358221220f250bd52ea0221df525c4638a1dcaca1224a3903fbe3c68d680319e307f21d7864736f6c63430007060033",
    "linkReferences": {}
  },
  "methodIdentifiers": {
    "DAI()": "e0bab4c4",
    "USDC()": "89a30271",
    "WETH9()": "4aa4a4fc",
    "poolFee()": "089fe6aa",
    "safeTransferAndApprove(uint256)": "a125d20f",
    "setDAIAddr(address)": "5d2f261f",
    "setWETHAddr(address)": "478c3d87",
    "swapExactInputSingle(uint256)": "73bd43ad",
    "swapRouter()": "c31c9c07"
  },
  "id": 0
}